:100000000C942E000C944B000C944B000C944B0061
:100010000C944B000C944B000C944B000C94700609
:100020000C944B000C944B000C944B000C944B0024
:100030000C944B000C944B000C944B000C944B0014
:100040000C944B000C944B000C944B000C944B0004
:100050000C944B000C944B000C944B0011241FBECD
:10006000CFEFD0E1DEBFCDBF11E0A0E0B1E0E8EE20
:10007000F1E102C005900D92A032B107D9F721E05D
:10008000A0E2B1E001C01D92A133B207E1F70E94E6
:1000900074080C94C8080C940000CF93DF93EC0113
:1000A0002FEF81EE94E0215080409040E1F700C0B6
:1000B00000000E940A0660E080E00E94760481E071
:1000C0000E942D0290E00E948C0561E080E00E9479
:1000D000760480E00E942D0290E00E948C0560E092
:1000E00086E00E947604219781F083E091E00E94EF
:1000F00067052FEF83EC99E0215080409040E1F7B5
:1001000000C00000DF91CF91089580E091E00E944F
:100110006705EFCFDF92EF92FF920F931F93CF937C
:10012000DF93C0E010E0D6E50AE02BEAE22E36EFDE
:10013000F32E0E940A078130D1F181E090E00E9405
:100140004D00812F81958D02612D112487FD6395CE
:10015000615881E00E94C306CD02612D1124C7FDC4
:100160006395615880E00E94C30681E00E942D02E1
:10017000863938F580E00E942D02863910F5CA30A4
:1001800008F459C0CA50CD02612D1124C7FD6395F2
:10019000615880E00E94C3061A30E8F56FE781E0FD
:1001A0000E94C30610E00E940A07813031F681E008
:1001B00090E0DF91CF911F910F91FF90EF90DF9032
:1001C000089581E00E942D02863908F4B2CF80E0C4
:1001D0000E942D02863908F4ACCF81E00E942D02E6
:1001E000D82E80E00E942D028D1558F51436C0F1EE
:1001F0006EE581E00E94C30614E6CB3008F442C0ED
:10020000CA50CD02612D1124C7FD6395615880E06D
:100210000E94C3068ECF86EFD82ED10E802F811B71
:100220008D02612D112487FD6395615881E00E9444
:10023000C3061D2D7ECF6FE780E00E94C306C0E09D
:10024000ABCFC43628F160EA80E00E94C306C4E662
:100250001B3008F76CE781E00E94C3061AE069CF03
:100260009AE0D92ED10E8F2D811B8D02612D112484
:1002700087FD6395615881E00E94C3061D2DCB3038
:1002800008F0BECF62E880E00E94C306CAE051CF0A
:10029000C65FCE9D612D11246695615880E00E9455
:1002A000C306D6CFDF92EF92FF920F931F93CF93A7
:1002B000DF93C0E010E0D6E526EFE22E0AE03BEA4D
:1002C000F32E0E940A078130D1F182E090E00E9473
:1002D0004D00812F81958D02612D112487FD63953D
:1002E000615881E00E94C306CD02612D1124C7FD33
:1002F0006395615880E00E94C30681E00E942D0250
:10030000863938F580E00E942D02863910F5CA3012
:1003100008F453C0CA50CD02612D1124C7FD639566
:10032000615880E00E94C3061A30B8F56FE781E09B
:100330000E94C30610E00E940A07813031F690E067
:1003400080E0DF91CF911F910F91FF90EF90DF90B0
:10035000089581E00E942D02863908F4B2CF80E032
:100360000E942D02863908F4ACCF81E00E942D0254
:10037000D82E80E00E942D028D1528F5C436B8F1E4
:1003800060EA80E00E94C306C4E61B3030F46CE7EC
:1003900081E00E94C3061AE094CF96EFD92ED10EC9
:1003A000802F811B8D02612D112487FD639561587B
:1003B00081E00E94C3061D2D84CF6FE780E00E947C
:1003C000C306C0E0B1CF1436E0F06EE581E00E94D4
:1003D000C30614E6CB3030F1CA50CD02612D112492
:1003E000C7FD6395615880E00E94C3066ACFC65F6F
:1003F000CF9D612D11246695615880E00E94C3064F
:10040000C4CF8AE0D82ED10E8E2D811B8D02612D96
:10041000112487FD6395615881E00E94C3061D2D5C
:10042000CB30D0F662E880E00E94C306CAE049CF34
:10043000962F66E59602612D112497FD639561580C
:100440000C94C306EAE7F0E0808187688083ECE7DC
:10045000F0E0808180668083089520917C00287F71
:1004600020937C0090917C00982B90937C0080914D
:100470007A00806480937A0080917A0086FDFCCFB8
:100480008091790008958DB18F7C8DB985E08A9532
:10049000F1F700006D9A759885E08A95F1F70000F4
:1004A0006C9A749885E08A95F1F7000008956C982D
:1004B00085E08A95F1F700006D9885E08A95F1F75F
:1004C000000008956D9885E08A95F1F70000659920
:1004D0000DC06C9885E08A95F1F700006C9A7498CD
:1004E00085E08A95F1F70000659BF3CF6C9808953D
:1004F0006C9885E08A95F1F700006C9A749885E015
:100500008A95F1F7000008951F93CF93DF93C82FCA
:10051000D62F142F0E9462020E94430287E013C06C
:100520006D9895E09A95F1F700006C9895E09A9592
:10053000F1F700006C9A749895E09A95F1F7000035
:10054000CC0F815029F0C6FDEBCF6D9A7598E9CF9D
:100550006D9A759885E08A95F1F700006C9895E0A2
:100560009A95F1F700006C9A749885E08A95F1F7F6
:1005700000006D9895E09A95F1F700006C986599E8
:100580004BC085E08A95F1F700006C9A749895E06D
:100590009A95F1F7000088E014C06D9A759895E07F
:1005A0009A95F1F700006C9895E09A95F1F70000A4
:1005B0006C9A749895E09A95F1F70000DD0F8150E0
:1005C00021F0D7FFEACF6D98EACF6D9885E08A9544
:1005D000F1F700006C9865991AC095E09A95F1F7CB
:1005E00000006C9A749885E08A95F1F70000112359
:1005F00051F06C9895E09A95F1F700006D9885E0C0
:100600008A95F1F70000DF91CF911F91089582E163
:1006100091E00E946705FFCF86E091E00E946705A8
:10062000FFCF6623E9F1A82FB92F2FEF260F30E077
:100630002F5F3F4F2A0F3B1F8D9198E0FD013197AF
:1006400016C06D9A759885E08A95F1F700006C9850
:1006500085E08A95F1F700006C9A749885E08A9598
:10066000F1F700008081880F8083915021F087FF8F
:10067000E8CF6D98E8CF6D9885E08A95F1F7000096
:100680006C98659918C085E08A95F1F700006C9A1E
:10069000749885E08A95F1F70000A217B30761F618
:1006A0006C9885E08A95F1F700006D9885E08A9551
:1006B000F1F7000008958FE091E00E946705FFCFF9
:1006C0000F931F93CF93DF93082FEB01142F0E94FA
:1006D000430287E013C06D9895E09A95F1F700000A
:1006E0006C9895E09A95F1F700006C9A749895E0F3
:1006F0009A95F1F70000000F815029F006FDEBCF2D
:100700006D9A7598E9CF6D9885E08A95F1F70000AC
:100710006C9895E09A95F1F700006C9A749885E0D2
:100720008A95F1F700006D9895E09A95F1F7000031
:100730006C9865995AC085E08A95F1F700006C9A2B
:10074000749895E09A95F1F700006D9885E08A9588
:10075000F1F700001123B1F12FEF210F30E02F5FEF
:100760003F4F2C0F3D1F98E08881880F88836C983D
:1007700085E08A95F1F70000659B03C08881816060
:10078000888385E08A95F1F700006C9A749885E07B
:100790008A95F1F70000915039F76D9A759895E0B8
:1007A0009A95F1F700006C9885E08A95F1F70000C2
:1007B0006C9A749895E09A95F1F700002196C2170B
:1007C000D30789F685E08A95F1F700006C9895E0EB
:1007D0009A95F1F700006D9885E08A95F1F7000091
:1007E000DF91CF911F910F91089587E191E00E94D1
:1007F0006705FFCFCF93DF930F92CDB7DEB7498365
:1008000040E00E94840261E0CE0101960E94110343
:100810000F90DF91CF9108951F93CF93DF930F92A5
:10082000CDB7DEB7182F41E00E94840241E0BE013F
:100830006F5F7F4F812F0E94600389810F90DF914E
:10084000CF911F91089561E08CE10C940C0463E05A
:100850008CE10C940C0465E08CE10C940C048AE0AF
:100860008A95F1F700C0449A8AE08A95F1F700C0B2
:1008700044988AE08A95F1F700C00895F89482B907
:100880008AE08A95F1F700C0449A8AE08A95F1F7E8
:1008900000C044988AE08A95F1F700C078940895E2
:1008A0008F98F89482B98AE08A95F1F700C0449A4B
:1008B0008AE08A95F1F700C044988AE08A95F1F7BA
:1008C00000C0789408958F9AF89482B98AE08A9546
:1008D000F1F700C0449A8AE08A95F1F700C0449885
:1008E0008AE08A95F1F700C0789408958031F0F499
:1008F0006230E0F46E5F6295660F660F607C860F73
:100900008F98F89482B98AE08A95F1F700C0449AEA
:100910008AE08A95F1F700C044988AE08A95F1F759
:1009200000C0789485EC8A95F1F7000008953C9A10
:10093000879A8FEF81B98FE19EE40197F1F700C0AC
:1009400000008F98F89488E382B99AE09A95F1F7BD
:1009500000C0449AEAE0EA95F1F700C04498FAE052
:10096000FA95F1F700C07894EFE7F2E03197F1F7EC
:1009700000C000008F98F89482B9FAE0FA95F1F778
:1009800000C0449A9AE09A95F1F700C04498EAE0D2
:10099000EA95F1F700C07894EFE7F2E03197F1F7CC
:1009A00000C000008F98F89482B9FAE0FA95F1F748
:1009B00000C0449A9AE09A95F1F700C04498EAE0A2
:1009C000EA95F1F700C07894EFE7F2E03197F1F79C
:1009D00000C000008F98F89498E092B9FAE0FA9578
:1009E000F1F700C0449A9AE09A95F1F700C0449854
:1009F000EAE0EA95F1F700C07894EFE7F2E031978A
:100A0000F1F700C000008F98F89491E092B9FAE0F5
:100A1000FA95F1F700C0449A9AE09A95F1F700C070
:100A20004498EAE0EA95F1F700C07894EFE7FEE336
:100A30003197F1F700C000008F98F89496E092B9D2
:100A4000FAE0FA95F1F700C0449A9AE09A95F1F726
:100A500000C04498EAE0EA95F1F700C07894EFE727
:100A6000F2E03197F1F700C000008F98F89482B956
:100A7000FAE0FA95F1F700C0449A8AE08A95F1F716
:100A800000C044989AE09A95F1F700C07894EFE896
:100A9000F1E03197F1F700C000008F98F8948CE0F6
:100AA00082B9FAE0FA95F1F700C0449A8AE08A9593
:100AB000F1F700C044989AE09A95F1F700C0789455
:100AC000EFE8F1E03197F1F700C000000895DC0194
:100AD0008C91882301F190E08F9AF89482B98AE092
:100AE0008A95F1F700C0449AEAE0EA95F1F700C070
:100AF0004498FAE0FA95F1F700C07894EFE7F2E055
:100B00003197F1F700C000009F5FFD01E90FF11D73
:100B100080818111E1CF08951F93CF93DF939C01D2
:100B2000892B09F45AC045E011E0EFE0F7E2CAE092
:100B3000D0E0C901BF016F5F7F4F0E949A08662312
:100B400049F1E217F30770F5605D8F9AF89462B986
:100B5000BAE0BA95F1F700C0449A2AE02A95F1F775
:100B600000C04498AAE0AA95F1F700C07894AFE7D6
:100B7000B2E01197F1F700C0000010E09C01CF0136
:100B8000BE010E94AE08FB01415099F6DF91CF9162
:100B90001F910895E217F30718F41111EFCFD4CF86
:100BA0001111EDCF605D8F9AF89462B9BAE0BA95F1
:100BB000F1F700C0449A8AE08A95F1F700C04498A2
:100BC0009AE09A95F1F700C07894AFE7B2E01197F8
:100BD000F1F700C0000010E0D2CF8F9AF89480E3C4
:100BE00082B92AE02A95F1F700C0449A8AE08A95F2
:100BF000F1F700C044989AE09A95F1F700C0789414
:100C0000AFE7B2E01197F1F700C00000DF91CF919C
:100C10001F9108958F98F89481E082B98AE08A95AF
:100C2000F1F700C0449A9AE09A95F1F700C0449811
:100C30008AE08A95F1F700C078948FE79EE30197E8
:100C4000F1F700C0000008955D9A5C980895382F70
:100C5000262F4FEF6403C001112464E670E00E9468
:100C6000AE08311107C06093B30012164CF45C9AC1
:100C70005D98089567BD12162CF45E9A5F980895EA
:100C80000C9424065F9A5E980895CF93DF93C3EB8C
:100C9000D0E018820E94240617BC5F9A5E9884B147
:100CA000806984B98AB1806F8AB9E0EBF0E0808115
:100CB0008866808380818260808384B5886684BDF5
:100CC00084B5826084BD8AE087BD8883DF91CF913F
:100CD00008955C9A5D982C9A5F9A5E982F9A089571
:100CE0002F932FB72F933F934F935F938F939F93A0
:100CF000EF93FF9340912001542F5695252F30E01C
:100D000081E090E001C0880F5A95EAF740FF26C0C5
:100D10004091880050918900220F331FF901EF5D47
:100D2000FE4F20813181240F351F3093890020939D
:100D3000880098B18095892388B9809120018F5FC0
:100D4000877080932001FF91EF919F918F915F9128
:100D50004F913F912F912FBF2F911895409188006F
:100D600050918900220F331FF901E75DFE4F20816A
:100D70003181240F351F309389002093880098B16A
:100D8000892B88B9DACF90E02AE0629FB001112464
:100D90006C53764F880F991FFC01E75DFE4F7183FE
:100DA00060838F5D9E4F24ED30E3261B370BFC01E3
:100DB000318320830895A9E2B1E024EC39E0119653
:100DC0003C932E93E1E2F1E080E197E2918380830E
:100DD00013963C932E9312979383828315963C939C
:100DE0002E9314979583848317963C932E9316978E
:100DF0009783868387B18F6087B9E1E8F0E010823E
:100E0000808182608083EFE6F0E080818260808371
:100E1000789408958CB18095881F8827881F08953D
:100E2000282F30E08E3010F080E00895F901E6536D
:100E3000F74F0C94C20886B190E02250310902C0ED
:100E4000959587952A95E2F78170089583B190E092
:100E50002950310902C0959587952A95E2F781704E
:100E600008952CB130E0A90102C0559547958A95A7
:100E7000E2F7CA018170089582B390E02F5F3F4F7F
:100E800002C0959587952A95E2F78170089523B160
:100E9000E9CF83B18695817008958CB186FB882750
:100EA00080F9089583B181700895282F30E08E3045
:100EB00030F4F901E852F74F0C94C20821980895D4
:100EC0002250310981E090E001C0880F2A95EAF7AD
:100ED00097B1662309F44DC0892B87B9089529502D
:100EE000310981E090E001C0880F2A95EAF794B1BA
:100EF000662309F446C0892B84B908952F5F3F4FBC
:100F000081E090E001C0880F2A95EAF793B3662349
:100F1000A1F1892B83BB089521E030E001C0220FAD
:100F20008A95EAF78DB1662381F1282B2DB90895B2
:100F300021E030E001C0220F8A95EAF784B16623F0
:100F400081F0282B24B90895662309F4B7CF219A9C
:100F50000895662361F06E9A0895662331F0209A11
:100F600008952095282324B90895209808956E980F
:100F700008958095892387B908958095892383BB37
:100F800008958095892384B90895209528232DB943
:100F90000895282F30E08E3030F4F901EA51F74FF0
:100FA0000C94C208299808952250310981E090E0FC
:100FB00001C0880F2A95EAF798B1662309F44DC05D
:100FC000892B88B908952950310981E090E001C04A
:100FD000880F2A95EAF795B1662309F446C0892B54
:100FE00085B908952F5F3F4F81E090E001C0880FE1
:100FF0002A95EAF794B36623A1F1892B84BB08955F
:1010000021E030E001C0220F8A95EAF78EB1662315
:1010100081F1282B2EB9089521E030E001C0220F84
:101020008A95EAF785B1662381F0282B25B90895C2
:10103000662309F4B7CF299A0895662361F0769A5A
:101040000895662331F0289A08952095282325B91C
:10105000089528980895769808958095892388B9E9
:1010600008958095892384BB08958095892385B947
:101070000895209528232EB90895811104C0613068
:1010800041F0A0980895613011F0A1980895A19AB7
:101090000895A09A0895811102C0A09A0895A19A76
:1010A0000895811102C0A0980895A1980895529AB8
:1010B00083B3836083BB779A0E9422020E949704C5
:1010C0000E94DB060E94450641E06AE28CE10E9434
:1010D000FA032FEF81EE94E0215080409040E1F739
:1010E00000C000000C9462020E9457080E94DB06B8
:1010F0000E9422026FE780E00E94C3066FE781E052
:101100000E94C30630E020E02230310561F0211555
:10111000310561F021303105B9F70E9452019C017F
:1011200022303105A1F790E080E008950E948A0006
:101130009C01EACFAA1BBB1B51E107C0AA1FBB1F22
:10114000A617B70710F0A61BB70B881F991F5A9553
:10115000A9F780959095BC01CD01089597FB072EC6
:1011600016F4009407D077FD09D00E949A0807FC76
:1011700005D03EF4909581959F4F089570956195A7
:101180007F4F0895EE0FFF1F0590F491E02D099415
:10119000F894FFCF310731073C073C074D0747075D
:1011A00047071B071B071B07520726072607490788
:1011B0008C078C077E077E07A907980798076007AA
:1011C00060076007AD076F076F07A40700080008F6
:1011D000F207F2071D080C080C08D407D407D4073F
:0811E0002108E307E3071808EA
:1011E800324100324200616464724E41434B0077E1
:1011F800725F4E41434B00726561644E41434B0040
:00000001FF
